:020000040000fa
:080000000002040000000000f2
:020000040000fa
:04000800740300007d
:020000040000fa
:04000c007403000079
:020000040000fa
:040010007403000075
:020000040000fa
:040014007403000071
:020000040000fa
:04001800740300006d
:020000040000fa
:04001c007403000069
:020000040000fa
:040020007403000065
:020000040000fa
:040024007403000061
:020000040000fa
:04002800740300005d
:020000040000fa
:04002c007403000059
:020000040000fa
:040030007403000055
:020000040000fa
:040034007403000051
:020000040000fa
:04003800c8020000fa
:020000040000fa
:04003c007403000049
:020000040000fa
:040040007403000045
:020000040000fa
:040044007403000041
:020000040000fa
:04004800740300003d
:020000040000fa
:04004c007403000039
:020000040000fa
:040050004e0300005b
:020000040000fa
:040054007403000031
:020000040000fa
:04005800740300002d
:020000040000fa
:04005c007403000029
:020000040000fa
:04006000e4020000b6
:020000040000fa
:040064007403000021
:020000040000fa
:04006800740300001d
:020000040000fa
:04006c007403000019
:020000040000fa
:040070007403000015
:020000040000fa
:040074007403000011
:020000040000fa
:04007800740300000d
:020000040000fa
:04007c007403000009
:020000040000fa
:040080007403000005
:020000040000fa
:040084007403000001
:020000040000fa
:0400880074030000fd
:020000040000fa
:04008c0074030000f9
:020000040000fa
:0400900074030000f5
:020000040000fa
:04009400280c000034
:020000040000fa
:0400980074030000ed
:020000040000fa
:04009c0074030000e9
:020000040000fa
:0400a00074030000e5
:020000040000fa
:0400a40074030000e1
:020000040000fa
:0400a80074030000dd
:020000040000fa
:0400ac0074030000d9
:020000040000fa
:0400b00074030000d5
:020000040000fa
:0400b40074030000d1
:020000040000fa
:0400b80074030000cd
:020000040000fa
:0400bc0074030000c9
:020000040000fa
:0400c00074030000c5
:020000040000fa
:0400c40074030000c1
:020000040000fa
:0400c80074030000bd
:020000040000fa
:0400cc0074030000b9
:020000040000fa
:0400d00074030000b5
:020000040000fa
:0400d40074030000b1
:020000040000fa
:0400d80074030000ad
:020000040000fa
:0400dc0074030000a9
:020000040000fa
:0400e00074030000a5
:020000040000fa
:0400e40074030000a1
:020000040000fa
:0400e800740300009d
:020000040000fa
:0400ec007403000099
:020000040000fa
:0400f0007403000095
:020000040000fa
:0400f4007403000091
:020000040000fa
:0400f800740300008d
:020000040000fa
:0400fc007403000089
:020000040000fa
:040100007403000084
:020000040000fa
:040104007403000080
:020000040000fa
:04010800740300007c
:020000040000fa
:04010c007403000078
:020000040000fa
:040110007403000074
:020000040000fa
:040114007403000070
:020000040000fa
:04011800740300006c
:020000040000fa
:04011c007403000068
:020000040000fa
:040120007403000064
:020000040000fa
:040124007403000060
:020000040000fa
:04012800740300005c
:020000040000fa
:04012c007403000058
:020000040000fa
:040130007403000054
:020000040000fa
:040134007403000050
:020000040000fa
:04013800740300004c
:020000040000fa
:04013c007403000048
:020000040000fa
:040140007403000044
:020000040000fa
:04020800740300007b
:020000040000fa
:04020c007403000077
:020000040000fa
:040210007403000073
:020000040000fa
:04021400740300006f
:020000040000fa
:04021800740300006b
:020000040000fa
:04021c007403000067
:020000040000fa
:040220007403000063
:020000040000fa
:04022400740300005f
:020000040000fa
:04022800740300005b
:020000040000fa
:04022c007403000057
:020000040000fa
:040230007403000053
:020000040000fa
:04023400740300004f
:020000040000fa
:04023800c8020000f8
:020000040000fa
:04023c007403000047
:020000040000fa
:040240007403000043
:020000040000fa
:04024400740300003f
:020000040000fa
:04024800740300003b
:020000040000fa
:04024c007403000037
:020000040000fa
:040250004e03000059
:020000040000fa
:04025400740300002f
:020000040000fa
:04025800740300002b
:020000040000fa
:04025c007403000027
:020000040000fa
:04026000e4020000b4
:020000040000fa
:04026400740300001f
:020000040000fa
:04026800740300001b
:020000040000fa
:04026c007403000017
:020000040000fa
:040270007403000013
:020000040000fa
:04027400740300000f
:020000040000fa
:04027800740300000b
:020000040000fa
:04027c007403000007
:020000040000fa
:040280007403000003
:020000040000fa
:0402840074030000ff
:020000040000fa
:0402880074030000fb
:020000040000fa
:04028c0074030000f7
:020000040000fa
:0402900074030000f3
:020000040000fa
:04029400280c000032
:020000040000fa
:0402980074030000eb
:020000040000fa
:04029c0074030000e7
:020000040000fa
:0402a00074030000e3
:020000040000fa
:0402a40074030000df
:020000040000fa
:0402a80074030000db
:020000040000fa
:0402ac0074030000d7
:020000040000fa
:0402b00074030000d3
:020000040000fa
:0402b40074030000cf
:020000040000fa
:0402b80074030000cb
:020000040000fa
:0402bc0074030000c7
:020000040000fa
:0402c00074030000c3
:020000040000fa
:0402c40074030000bf
:020000040000fa
:0402c80074030000bb
:020000040000fa
:0402cc0074030000b7
:020000040000fa
:0402d00074030000b3
:020000040000fa
:0402d40074030000af
:020000040000fa
:0402d80074030000ab
:020000040000fa
:0402dc0074030000a7
:020000040000fa
:0402e00074030000a3
:020000040000fa
:0402e400740300009f
:020000040000fa
:0402e800740300009b
:020000040000fa
:0402ec007403000097
:020000040000fa
:0402f0007403000093
:020000040000fa
:0402f400740300008f
:020000040000fa
:0402f800740300008b
:020000040000fa
:0402fc007403000087
:020000040000fa
:040300007403000082
:020000040000fa
:04030400740300007e
:020000040000fa
:04030800740300007a
:020000040000fa
:04030c007403000076
:020000040000fa
:040310007403000072
:020000040000fa
:04031400740300006e
:020000040000fa
:04031800740300006a
:020000040000fa
:04031c007403000066
:020000040000fa
:040320007403000062
:020000040000fa
:04032400740300005e
:020000040000fa
:04032800740300005a
:020000040000fa
:04032c007403000056
:020000040000fa
:040330007403000052
:020000040000fa
:04033400740300004e
:020000040000fa
:04033800740300004a
:020000040000fa
:04033c007403000046
:020000040000fa
:040340007403000042
:020000040000fa
:100400002fc520000e3f24000e01880000000000d0
:10041000000020000000e000020032000001200087
:100420002002880014000700b10007000000e0006f
:1004300003003a00c037210001002000020037000d
:100440000000200001002000810f70000100320038
:1004500014000700000020000000e000020032004d
:1004600000000200000000006a0e02000000000010
:100470000040da000000fe004440a9000000200017
:100480000000e0000300320000002000a00188000e
:100490004440a800000006008a1f78008b1f7800e7
:1004a0000000060091018800800478000000eb0045
:1004b0001a003700e284440032a0b4009905ba0063
:1004c000e284440032a0b4009906ba00e2844400f9
:1004d00032a0b4000006eb00476fde00fd07b2005b
:1004e000636ce10003003a00ebff07000000eb0043
:1004f0000a003700606ce10004003a00005deb0088
:100500008b05e900fdff3e00040037006168e10053
:10051000010032000086eb000b00070019c7ba008b
:100520001905ba000e04e00003003a000a00e000da
:10053000e0ff3a0000000600fe07b2009e018800be
:100540008a047800f5ff3700395dba008b05e900b1
:100550000c003200295dba008b05e900080032006a
:100560000c00e00003003a00e284440032a0b40032
:10057000f5ff370019ddba008b05e900faff3a00f4
:100580008904e800e184440032a0b40000000600c1
:10059000809fbe000000fa008480a90050418000c6
:1005a00051418000a10090000100a20021009800ac
:1005b000504180008000eb00310098000080fa007c
:1005c0004f00be0000400600809fbe000000fa0001
:1005d00085c0a90070418000e00090008100e80023
:1005e0006100980070418000e00090007041800040
:1005f00040009000808f500021003a007041800040
:100600008000eb0061009800704180007141800023
:10061000a10090000100a20021009800704180001c
:100620008000eb00310098007041800020009000b5
:10063000e10f500007003a00704180001000900068
:10064000800078000000240000805000801c88009a
:1006500006003700704180001000780080007800ac
:100660000000240000805000801c88007041800041
:1006700071418000d10090004100980003003700d4
:10068000801c80000080e800801c88008de3a800aa
:100690000080fa004f00be00004006003600f8005f
:1006a000809fbe00829fbe00849fbe00869fbe00ca
:1006b0000000fa0040418000e10f500002003a00c3
:1006c0002604070001003700950207000080fa00a9
:1006d0004f03be004f02be004f01be004f00be00e0
:1006e0003600f900004006000040da000000fe007d
:1006f00000000500839f68000100e00002003d004b
:1007000060001000e08018000300e00002003d00df
:1007100060011100e0811900050007004f00e000b2
:1007200002003b0060001000e0801800000006009e
:100730006022b800060220000000d0008180d200b4
:100740000482d2008582d2000000a0000202520082
:1007500083825a00030031000202420083824a0071
:100760000000a1000603e900f3ff3a0000000600c4
:020000040000fa
:100770000400fa00000f7800110798009e0078002e
:1007800061418800604180009e009000010878006f
:100790004382a9004362a9004342a9004322a80062
:1007a0004302a80042c2a90042a2a80042e2a90056
:1007b0001112800030fe2f00008060008001b30025
:1007c0001012880011128000c0ff2f00008060000e
:1007d0000010a0001012880045e2a9002c43a800d8
:1007e000c642a900ca42a80041a2a9000080fa009e
:1007f000000006000200fa00000f78009540a800f3
:1008000041e2a8001e0078008000eb002100980063
:100810001e0078008000eb00110098001e00780098
:100820008000eb00410098001e00780001102000bd
:1008300031009800ca42a8000080fa0000000600bb
:100840000e00fa00889fbe008a9fbe008c9fbe00eb
:100850002007980032079800430798005107980036
:10086000640798002e009000100078001007980090
:100870001e00900021c0b300014878001e009000c7
:100880000002e8003e019000ce0190000000200030
:10089000f10f2000820278000301780080017800c7
:1008a0008100780003806200810061008106780089
:1008b000000678000c00be00408dde00cf8dde000b
:1008c0000a407800004a78001e0090000082e8008c
:1008d0003e019000ce01900000f02f0001002000aa
:1008e000820278000301780080017800810078009e
:1008f00003806200810061008104780000047800b8
:100900000800be004809dd004803de000603710050
:10091000c88bde0006407800004a78001e00900078
:1009200063004000be0090008140780001487800dc
:10093000ee00900000102000808f50000200340074
:1009400000102000600798001e0090006300400027
:10095000104078000004e000100032001e009000fb
:1009600063004000104078000080fb000110200070
:10097000808050006e009000808f500007003d0086
:100980001e00900063004000104078000080fb00d3
:100990000110200000805000600798000000eb006c
:1009a000000f7800090037009e0078006480400046
:1009b0009e00900000804000de0090009e8040007d
:1009c00091407800014878001e0fe8006e0090000a
:1009d0009e0f5000f4ff3e002e009000200090007b
:1009e000800078000120a0002e00900021009800d7
:1009f0006e009000e40040002e009000310098004e
:100a0000ca42a9001e009000104078000080fb0040
:100a1000401288006e0090004f06be004f05be00d9
:100a20004f04be000080fa00000006000e00fa002d
:100a3000889fbe008a9fbe008c9fbe002007980042
:100a40003207980043079800510798006407980000
:100a50003e019000ce01900000002000f10f200028
:100a6000020278000301780080017800810078009c
:100a700003006200810061008106780000067800b2
:100a80000c00be00408dde00cf8dde000a4f7800e6
:100a90003e019000ce01900000f02f0001002000e8
:100aa000020278000301780080017800810078005c
:100ab0000300620081006100810478000004780076
:100ac0000800be004809dd004803de00060371008f
:100ad000c88bde00164798003e0090002047980023
:100ae000ee00900000102000808f500004003400c1
:100af0002e00900001102000310098000300370004
:100b00002e009000ee00900031009800de00900072
:100b10002e009000510098002e0090008000eb0005
:100b200041009800ca42a90030002000401288000d
:100b3000000000002e009000200090006100600086
:100b40000000e000fbff32002e009000200090002b
:100b5000800078000100a1002e0090002100980084
:100b60001e00fb0040128800000000002e009000d4
:100b700020009000610060000000e000fbff3200f8
:100b80002e00900020009000800078000100a1005d
:100b90002e009000210098001e4090000000fb00f5
:100ba00040128800000000002e00900020009000fd
:100bb000610060000000e000fbff32002e009000aa
:100bc00020009000800078000100a1002e0090001d
:100bd000210098002e4090000000fb004012880089
:100be000000000002e0090002000900061006000d6
:100bf0000000e000fbff32002e009000200090007b
:100c0000800078000100a1002e00900021009800d3
:100c10004822ef002e009000200090008000780015
:100c20000110a0002e009000210098004f06be0089
:100c30004f05be004f04be000080fa000000060011
:100c40000200fa00000f78001e00780020009000db
:100c5000640060000000e00002003200100020008c
:100c6000270037001e00780020009000620060001e
:100c70000000e000020032001000200020003700d9
:100c8000ca42a90050002000401288000000000065
:100c90001e00780020009000610060000000e0006d
:100ca000fbff32001e0078002000900080007800da
:100cb0000100a1001e007800210098004822ef00ea
:100cc000000000001e00780020009000610060001d
:100cd0000000e000fbff32001e00780020009000c2
:100ce000800078000100a1001e007800210098001b
:100cf000ca42a8001e007800100090006100600049
:100d00000080fa00000006000e00fa00400798007c
:100d100051079800620798005e009000e10f5000b4
:100d200011003a00ca42a9002006200040128800a3
:100d3000000000004e009000200090006100600064
:100d40000000e000fbff32004e0090002000900009
:100d5000800078000100a1004e0090002100980062
:100d6000ca42a800ec0037005e009000e20f50007d
:100d70002e003a00ee00900011079800ca42a90028
:100d80005001200040128800000000004e0090003a
:100d900020009000610060000000e000fbff3200d6
:100da0004e00900020009000800078000100a1001b
:100db0004e009000210098000000eb00000f78002a
:100dc000150037004822ef00000000004e009000a0
:100dd00020009000610060000000e000fbff320096
:100de0004e00900020009000800078000100a100db
:100df0004e009000210098001e0078009e00900098
:100e000000804000ce00900091009000814078006a
:100e1000014878001e0fe8001e007800e30f500024
:100e2000e8ff3400ca42a800bb0037005e00900013
:100e3000e30f500025003a00ee00900021079800d3
:100e4000ca42a900500020004012880000000000a3
:100e50004e00900020009000610060000000e00063
:100e6000fbff32004e0090002000900080007800d0
:100e70000100a1004e009000210098004822ef00e0
:100e8000000000004e009000200090006100600013
:100e90000000e000fbff32004e00900020009000b8
:100ea000800078000100a1004e0090002100980011
:100eb0004e00900010009000804078002e009000be
:100ec00001487800ca42a800930037005e009000f5
:100ed000e40f500011003a00ca42a900600020004f
:100ee00040128800000000004e009000200090009a
:100ef000610060000000e000fbff32004e00900047
:100f000020009000800078000100a1004e009000b9
:100f100021009800ca42a8007f0037005e009000c0
:100f2000e60f500011003a00ca42a900400020001c
:100f300040128800000000004e0090002000900049
:100f4000610060000000e000fbff32004e009000f6
:100f500020009000800078000100a1004e00900069
:100f600021009800ca42a8006b0037005e00900084
:100f7000e70f500045003a00ee009000310798005e
:100f8000ca42a9002005200040128800000000008d
:100f90004e00900020009000610060000000e00022
:100fa000fbff32004e00900020009000800078008f
:100fb0000100a1004e009000210098003e0090002a
:100fc0000080e800104078000000fb00401288001c
:100fd000000000004e0090002000900061006000c2
:100fe0000000e000fbff32004e0090002000900067
:100ff000800078000100a1004e00900021009800c0
:101000003e0090000000e800104078000000fb0067
:1010100040128800000000004e0090002000900068
:10102000610060000000e000fbff32004e00900015
:1010300020009000800078000100a1004e00900088
:10104000210098003e009000104078000000fb0056
:1010500040128800000000004e0090002000900028
:10106000610060000000e000fbff32004e009000d5
:1010700020009000800078000100a1004e00900048
:1010800021009800ca42a800230037005e009000ab
:10109000e50f500020003a00ca42a90010002000cd
:1010a00040128800000000004e00900020009000d8
:1010b000610060000000e000fbff32004e00900085
:1010c00020009000800078000100a1004e009000f8
:1010d000210098006e009000104078000000fb0096
:1010e00040128800000000004e0090002000900098
:1010f000610060000000e000fbff32004e00900045
:1011000020009000800078000100a1004e009000b7
:1011100021009800ca42a8000080fa0000000600e2
:101120000000fa008540a900604180002000900086
:10113000640060000000e000230032006041800095
:10114000411280001100980060418000c0009000b2
:101150008100e8004100980060418000c0009000dc
:101160006041800030009000808f500009003d00f9
:101170006041800090007800604180004000900055
:1011800000804000104078000000fb004012880002
:101190003b0037006041800061418000a100900069
:1011a0000120a10021009800604180008000eb0038
:1011b00031009800604180008000eb004100980001
:1011c000ca42a8002e003700604180002000900035
:1011d000620060000000e0002100320060418000f9
:1011e000d0009000604180004000900000804000ee
:1011f0004112800081407800014878006041800001
:10120000c00090008100e80041009800604180002b
:10121000c00090006041800030009000808f50003e
:1012200002003d004822ef001500370060418000b9
:1012300061418000a10090000110a10021009800f0
:10124000604180008000eb00310098006041800028
:101250008000eb0041009800ca42a8000800370057
:101260006041800061418000a10090000100a00069
:101270002100980060418000411280001100980018
:101280000080fa00000006008062880001009800db
:101290000001eb0012009800220098003200980034
:1012a000023220008201b3002200b3001212880033
:1012b00045e2a90041a2a9008540a9009540a800e7
:1012c00041e2a8002c43a800c642a900ca42a800d7
:1012d0001e21ef001421ef0002202000d208880018
:1012e0008760a9009760a800806280000000060067
:1012f000100390000630a600020037000000eb004b
:10130000000006000400e00002003c000000eb00ca
:10131000000006000510200005a0e60004102000d3
:101320008002eb00350098002400980080029000b5
:101330008003eb00e1f27b008703e8000402e90090
:101340000400e000fbff3c000630a00084ff2f00fb
:1013500004036300160098004200980053009800b0
:10136000ca42a900640020004412880007007800e7
:1013700000000600100390000630a60002003700af
:101380000000eb00000006000400e00002003c004a
:101390000000eb00000006009540a9004512800007
:1013a000ca42a90035002000451288004002ae0064
:1013b000feff370045128000431288004002ae0055
:1013c000feff3700451280000280fd0042128800b7
:1013d0004002ae00feff3700451280000280fd0093
:1013e000421288004002ae00feff37004512800026
:1013f0000003eb008002eb00451288004002ae00c3
:10140000feff37004712800087707b000603e8006c
:1014100004b0e700f8ff3700ca42a8008540a900e1
:101420009540a8000400780000000600100390001a
:101430000630a600020037000000eb0000000600a6
:10144000230020000198e7001f0037009540a90005
:101450004412800003092000ca42a90043128800f8
:101460004002ae00feff3700441280008001eb0016
:1014700035002000431288004002ae00feff370016
:10148000441280008502e9000500e000f9ff3c00fd
:1014900045002000431288004002ae00feff3700e6
:1014a00044128000045978008502e9000500e0003c
:1014b000f8ff3c00ca42a8008540a9009540a8005a
:1014c0001000200000000600130020000198e70033
:1014d000240037009540a9004412800063002000da
:1014e000ca42a900431288004002ae00feff370046
:1014f000ca42a80044128000030620000000000039
:1015000000000000ca42a900431288004002ae0059
:10151000feff3700ca42a80044128000ca42a90058
:1015200053002000431288004002ae00feff370047
:10153000441280008001eb00431288004002ae009c
:10154000feff3700441280000400a700faff3700b6
:10155000ca42a8008540a9009540a80010002000bc
:1015600000000600330020000198e7001300370058
:101570009540a900ca42a9004412800053002000ef
:10158000431288004002ae00feff37004412800084
:101590008001eb00431288004002ae00feff3700de
:1015a0004412800004497800ca42a8008540a9007e
:1015b0009540a80010002000000006004300200015
:1015c0000198e7000d0037009540a9004412800003
:1015d00063002000ca42a900431288004002ae0006
:1015e000feff3700ca42a800441280008540a900cf
:1015f0009540a800100020000000060053002000c5
:101600000198e700190037009540a90044128000b6
:1016100003052000ca42a900431288004002ae0020
:10162000feff3700ca42a8004412800013002000c9
:10163000ca42a900431288004002ae00feff3700f4
:101640004412800092017800431288004002ae00ec
:10165000feff3700ca42a800441280008540a9005e
:101660009540a80010002000000006009300200014
:101670000198e700370037009540a9004412800028
:10168000ca42a90063002000431288004002ae0055
:10169000feff3700ca42a80044128000830d2000dc
:1016a0000000000000000000ca42a90043128800a8
:1016b0004002ae00feff370044128000920190000d
:1016c000431288004002ae00feff37004412800043
:1016d000920178000380fd00431288004002ae00b2
:1016e000feff3700441280000380fd004312880093
:1016f0004002ae00feff370044128000ca42a8003c
:101700000000000000000000000000005300200066
:10171000ca42a900431288004002ae00feff370013
:10172000441280008001eb00431288004002ae00aa
:10173000feff3700441280000400a700faff3700c4
:10174000ca42a8008540a9009540a80010002000ca
:10175000000006000000eb0000000600801f78007b
:10176000811f7800821f7800831f7800841f780013
:101770008540a900441280008062800090009000a3
:10178000678160000200e00007003c00ca42a80038
:101790008100e8001100980023002000ca42a9003f
:1017a00043128800240037006110e10005003c006e
:1017b0008100e80011009800d001900043128800d9
:1017c0001d0037006210e10006003c008100e800c7
:1017d00011009800c00190000380fd0043128800b2
:1017e000150037006310e10005003c008100e800af
:1017f00011009800c0019000431288000e003700cd
:101800006410e1000a003c008100e800110098002b
:101810008001900030029000e3417a0020029000a5
:101820000402e900240098004312880002003700f7
:10183000ca42a8001fe1a8004f027800cf0178003b
:101840004f017800cf0078004f00780000000600bc
:10185000801f7800811f7800821f7800831f780026
:101860008760a9001fe1a9001421ef0080628000b9
:10187000a00090000100e00014003400b0009000cf
:101880008100e80031009800d001900040019000f4
:1018900061014100e0814900810020000198e600db
:1018a0008001eb00530098004200980090009000e7
:1018b00082ff2f008100610011009800ca42a90038
:1018c000630020004312880003003700900090005e
:1018d0000130a10011009800cf0178004f0178007d
:1018e000cf0078004f007800004006000a00fa00a0
:1018f000400798000000eb0030079800a03320005c
:1019000010128800c642a9002c43a800ca42a800b1
:1019100041e2a800ca42a900000920004012880044
:101920000000000000128000610060000000e00084
:10193000fcff320040128000000f78004822ef00c8
:101940000000000000128000610060000000e00064
:10195000fcff320040128000000f78004822ef00a8
:101960000000000000128000610060000000e00044
:10197000fcff320040128000000f78004822ef0088
:101980000000000000128000610060000000e00024
:10199000fcff320040128000000f78004822ef0068
:1019a0000000000000128000610060000000e00004
:1019b000fcff320040128000100798004822ef0020
:1019c0000000000000128000610060000000e000e4
:1019d000fcff32004012800020079800ca42a80095
:1019e0008540a9009e009000f00b2000808f5000e1
:1019f0000c003a001000200040418800ce0090000a
:101a000040c4200020fe07003041880030418000a3
:101a1000e6004700010178005100200083fe070026
:101a2000060037002828ef0080418000ce0090009b
:101a30004ffb0700804180006efb07000080fa002a
:101a4000000006000000fa0040418000e10f500055
:101a500008003a0000000000304180000001eb0067
:101a60001100200071fe07000000e000faff3200c4
:101a70000d003700804180000001eb004100200094
:101a8000a1fc0700804180000001eb001100200054
:101a90009dfc0700000000008041800068fc0700fa
:101aa0000000e000fcff3a000080fa0000000600a1
:101ab0000400fa00008fbe0040418000e10f50009a
:101ac00005003a00304180000e01780091002000ae
:101ad00056fe07000d003700804180000001eb003a
:101ae0004100200088fc0700804180000e01780042
:101af0007100200084fc070000000000804180008d
:101b00004ffc07000000e000fcff3a000080fa00f4
:101b1000000006000a00fa0010079800210798004c
:101b200032079800430798000000eb00000f780090
:101b300040418000e10f50002d003a000f003700b7
:101b40004e0090001e0250001e007800be00900063
:101b5000808240001e0078006101b9001e009000e4
:101b6000ae009000020140008381480030418000b7
:101b700085007800defd07001e0f40004e0090003b
:101b80009e007800808f5000edff35001c0037006c
:101b9000000000008041800029fc07000000e000f8
:101ba000fcff3a00804180000001eb004100200072
:101bb00055fc07004e0090001e0250001e007800e9
:101bc000be009000808240001e0078006101b900d4
:101bd0001e009000ae00900002014000838148008a
:101be000804180008500780015fb07001e0f400033
:101bf0004e0090009e007800808f5000e4ff35007a
:101c00004e0090000080fa00000006000a00fa0072
:101c100010079800210798003207980043079800a2
:101c20000000eb00000f780040418000e10f500001
:101c300015003a000f0037004e0090001e025000c1
:101c40001e007800be009000808240001e007800d8
:101c50006101b9001e009000ae009000020140003a
:101c6000838148003041800085007800c1fd070075
:101c70001e0f40004e0090009e007800808f5000a4
:101c8000edff3500100037000000000080418000ab
:101c9000ebfb07000000e000fcff3a008041800001
:101ca0004e029000be0090001e019000ae01900018
:101cb0005efb07000000000080418000e0fb0700a1
:101cc0000000e000fcff3a004e0090000080fa00a7
:101cd000000006001201fa006000b800008fbe008c
:101ce0000000200021002000200798003107980004
:101cf00000002000210020004007980051079800b4
:101d00006000b800600798007107980090022000fa
:101d1000303a8800213a8000f0f32f000080600004
:101d2000203a8800213a800000fe2f0000806000e9
:101d3000203a88004827ef0012002000800720008a
:101d4000a10920003374200080497800814978007f
:101d500082497800120020006004200071052000f4
:101d600023742000804978008149780082497800f6
:101d700000000000113a8000000027008080600011
:101d800000002100808f5000faff3a0000000000a0
:101d9000113a800000022000008060000000e00096
:101da000fbff3200f0408000016024008d0107003d
:101db00000418000014024006700070060a220006d
:101dc000cafe0700f0408000c30107000041800008
:101dd00081000700a0022000000f98000000000012
:101de000f0408000000207000000e000fcff3a0025
:101df000f04080000208200021832000cd01070070
:101e00000000000000418000e90007000000e00041
:101e1000fcff3a00f2004700700047000508200070
:101e200014002000030820000101780080007800e1
:101e3000208320000600070000418000f2004700d8
:101e4000020820008a00070000000000e4ff3700bd
:101e50001000fa0020079800310798004207980008
:101e60005307980064079800750798000000eb007e
:101e7000000f7800320037001e007800000040009c
:101e8000ce009000008040008000eb000108780048
:101e90000000eb0010079800240037001e0090009f
:101ea0001e0010000000e0001d0035001e00900024
:101eb0009e0010006e009000808f500018003d00c2
:101ec0001e00780000004000ce009000008140001d
:101ed0001e00780000004000ce009000008040000e
:101ee000900178001e00900000004000ae009000bd
:101ef00000804000900078001e0090001e0010003e
:101f0000000040003e0290000000420010007800f7
:101f10000088b900000078000080410000097800c6
:101f20001e0090000000e800100798009e0090003e
:101f30005e009000808f5000d8ff35001e0fe80033
:101f40007e0090009e007800808f5000caff350010
:101f50000080fa00000006000400fa00000f78007c
:101f6000110798009e007800714188001e007800db
:101f70009e009000010878001e00900001102000d3
:101f8000808040001e00780011009800100122009f
:101f9000601c880070002000701c88001e00780003
:101fa00010007800800078000000240000805000bd
:101fb000801c880000182000a01c880070002000f1
:101fc000b01c88001021ef000621ef000c21ef006b
:101fd0000080fa00000006000200fa00000f7800fe
:101fe0001e0078008000eb00210098001e007800a1
:101ff0008000eb00610098001e00780001082000be
:10200000410098001e00780001082000510098004f
:102010001e0078008000eb003100980085c0a90008
:1020200095c0a8008de3a800002720006008880064
:1020300080132000000c880080132000100c880002
:1020400060002000200c880011e1a8000080fa0048
:10205000000006000200fa00000f780011e1a9005c
:1020600095c0a9008de3a9000080fa0000000600d9
:102070000e00fa0040079800510798006207980088
:102080004e009000200090000000e00003003200ad
:102090004e00900010007800020037004e009000c3
:1020a0001000900020079800ee009000000820002b
:1020b000808f500002003400000820006007980064
:1020c0000000eb00000f78002b0037001e007800a6
:1020d00000004000de00900000804000100078000a
:1020e0008000780000002800008040003007980041
:1020f0003e0090008000eb00022720000289b9001a
:10210000020178006002b9008401780003014100f7
:10211000032720000300b80001014100820078007d
:10212000f2ff2f000300200072f90700100798004b
:102130009e00900000272000808f50000200360093
:10214000f0262000100798001e0090000000e0001c
:1021500002003a0010002000100798001e007800ce
:1021600000004000ae009000008040009e00900003
:10217000010878001e0fe8006e0090009e007800b5
:10218000808f5000d1ff35004e009000ee0090008f
:10219000510098000400fc004e0090001100200047
:1021a000310098000000fc000080fa0000000600ea
:1021b0000200fa00000f78001e0078003000900046
:1021c0000080fa0000000600800278000103780019
:1021d000820378000700e0001e003400350078001c
:1021e0000300280083006000c808de0000f0a7009c
:1021f0000000ea00b3f727000300e1000100390006
:102200000300780043082000030040000081cf0055
:102210000b003100930020000281510001003b00bf
:102220000001eb00e30141000302de00f3002000a7
:10223000030262004411dd0002027200010272001a
:102240000480ea00f00fb200005b78008703e90029
:10225000e2ff3a00000006008002780001037800e7
:10226000820378000700e000150034003540780054
:102270000080ea00030820008300600003072000bc
:10228000030160004411de000281e800f300200039
:1022900003026000700272000402d0000402e80031
:1022a0000222dd0043082000030252000170a70053
:1022b0000402ea00041b78008703e900ebff3a0000
:1022c0000000060080027800010378008203780095
:1022d0000700e00023003400350078000000e00033
:1022e00002003a00500520001b00370003002800c0
:1022f00083006000c808de0000f0a7000000ea00cc
:10230000f3ff27000300e10001003900030078001b
:102310000081cf00060031006910e10004003d009b
:102320009300200002815100e301410002003700c8
:102330000001eb00430020000302de00f300200058
:10234000030262004411dd00020272000102720009
:10235000530d200003406a00005b78008703e9000a
:10236000ddff3a00000006008002780001037800db
:10237000820378000700e000190034000000eb0041
:1023800035407800530d200000c06900030820008c
:102390008300600003072000030160004411de0099
:1023a0006f0260004422dd00680042000200e0008d
:1023b0000200320003102000030040006110e10021
:1023c000020034000201e9000200dd000170a700f4
:1023d0000000ea00001b78008703e900e7ff3a00ed
:1023e000000006000400fa00000f780011079800b2
:1023f0009e007800514188001e0078009e009000e9
:10240000010878001e0090000008b00080007800ed
:102410001e0078001100980081c3a90081a3a900c3
:102420008183a9008163a900011c8000f0fc2f00ba
:1024300000806000001c8800011c8000c0ff2f008d
:10244000008060000010a000001c880083e3a90049
:10245000111c800000f82f0000806000d000b30045
:10246000101c88001e0078001000780080007800a2
:102470000000240000805000201c88001e0078000e
:1024800010009000800078000000240000805000c0
:10249000301c880000302000401c8800f00720001d
:1024a000501c880040742000001988002223ef008f
:1024b00000012000201988002823ef002c03a90028
:1024c0003023ef000a21ef007038210070088800e7
:1024d0000080fa00000006000200fa00000f7800f9
:1024e0001e0078008000eb00210098001e0078009c
:1024f00011002000310098008480a9009480a80079
:1025000081e3a80021e3a80013e1a8000080fa00fd
:10251000000006000200fa00000f78009480a90075
:1025200081e3a90021e3a90013e1a9000080fa00da
:10253000000006000a00fa00200798003107980002
:10254000420798002e009000200090000000e0005c
:10255000030032002e0090001000780002003700c7
:102560002e0090001000900010079800ce00900000
:1025700000082000808f5000020034000008200076
:10258000400798000000eb00000f78000b003700b8
:102590001e00780000004000be00900080804000d7
:1025a0001e007800000040001e0190000000410065
:1025b00010007800800878001e0fe8004e009000a0
:1025c0009e007800808f5000f1ff35000400fc0071
:1025d0002e00900011002000310098000000fc0047
:1025e0000080fa00000006000200fa00000f7800e8
:1025f0001e007800300090000080fa000000060005
:102600000000fa00cda2a900cde2a900cdc2a90028
:10261000d1a2a800d1e2a800d1c2a800d302a8008c
:10262000d322a800e402a900e422a900e802a9003c
:10263000e822a9002228ef002428ef002ca3a800fc
:10264000c6a2a900caa2a8000080fa0000000600e5
:102650000200fa00a1168000001020000080600037
:102660000000e00009003a00104180000000e8008e
:102670001041880010418000ec0f500006003a0025
:1026800010002000000f7800030037002228ef0020
:102690000000eb00000f78001e0078000080fa00b8
:1026a000000006000200fa00a116800000202000b1
:1026b000008060000000e00009003a002041800036
:1026c0000000e8002041880020418000ec0f50000d
:1026d00006003a0010002000000f780003003700c9
:1026e0002428ef000000eb00000f78001e007800a7
:0826f0000080fa000000060062
:020000040000fa
:1026f8002a08000002000000000000002c0800006a
:10270800020000000000000032080000060400007b
:102718000000000000460000000200000000000069
:102728000044000000020000000000000008000053
:102738001e000000000000001e0800000400000049
:102748000200000000082a000c0000002e0800000b
:102758000200000000000000220800000400000041
:1027680000000000380c0000180000000000000005
:10277800300800000200000002000000380c0000d1
:10278800260800000400000000000000500c0000b3
:0c27980002000000000000000000000033
:020000040000fa
:0200000401f009
:04000800ffffff00f7
:020000040000fa
:0200000401f009
:04000c00a000000050
:020000040000fa
:0200000401f009
:0400100043000000a9
:020000040000fa
:0200000401f009
:040014005f00000089
:00000001FF
